{
  "contractName": "HoneyPot",
  "abi": [
    {
      "constant": true,
      "inputs": [
        {
          "name": "",
          "type": "address"
        }
      ],
      "name": "balances",
      "outputs": [
        {
          "name": "",
          "type": "uint256"
        }
      ],
      "payable": false,
      "stateMutability": "view",
      "type": "function"
    },
    {
      "constant": false,
      "inputs": [],
      "name": "put",
      "outputs": [],
      "payable": true,
      "stateMutability": "payable",
      "type": "function"
    },
    {
      "constant": false,
      "inputs": [],
      "name": "get",
      "outputs": [],
      "payable": false,
      "stateMutability": "nonpayable",
      "type": "function"
    },
    {
      "inputs": [],
      "payable": true,
      "stateMutability": "payable",
      "type": "constructor"
    },
    {
      "payable": false,
      "stateMutability": "nonpayable",
      "type": "fallback"
    }
  ],
  "bytecode": "0x606060405261001f610024640100000000026100eb176401000000009004565b610069565b346000803373ffffffffffffffffffffffffffffffffffffffff1673ffffffffffffffffffffffffffffffffffffffff16815260200190815260200160002081905550565b61021b806100786000396000f300606060405260043610610057576000357c0100000000000000000000000000000000000000000000000000000000900463ffffffff16806327e235e314610067578063549262ba146100b45780636d4ce63c146100be575b341561006257600080fd5b600080fd5b341561007257600080fd5b61009e600480803573ffffffffffffffffffffffffffffffffffffffff169060200190919050506100d3565b6040518082815260200191505060405180910390f35b6100bc6100eb565b005b34156100c957600080fd5b6100d1610130565b005b60006020528060005260406000206000915090505481565b346000803373ffffffffffffffffffffffffffffffffffffffff1673ffffffffffffffffffffffffffffffffffffffff16815260200190815260200160002081905550565b3373ffffffffffffffffffffffffffffffffffffffff166000803373ffffffffffffffffffffffffffffffffffffffff1673ffffffffffffffffffffffffffffffffffffffff1681526020019081526020016000205460405160006040518083038185876187965a03f19250505015156101a957600080fd5b60008060003373ffffffffffffffffffffffffffffffffffffffff1673ffffffffffffffffffffffffffffffffffffffff168152602001908152602001600020819055505600a165627a7a723058200760d37d82697dacbbe16c200f3650a94c97a7ae2c02497abd4ddda49addbaf80029",
  "source": "pragma solidity 0.4.18;\n\ncontract HoneyPot {\n    mapping (address => uint) public balances;\n\n    function HoneyPot() payable {\n        put();\n    }\n\n    function put() payable {\n        balances[msg.sender] = msg.value;\n    }\n\n    function get() {\n        require(msg.sender.call.value(balances[msg.sender])());\n        balances[msg.sender] = 0;\n    }\n\n    function() {\n        revert();\n    }\n}\n",
  "sourcePath": "/home/naps62/projects/b9lab-honeypot-theft/contracts/HoneyPot.sol",
  "compiler": {
    "name": "solc",
    "version": "0.4.18+commit.9cf6e910.Emscripten.clang"
  },
  "schemaVersion": "1.0.1",
  "updatedAt": "2018-01-08T18:49:07.833Z"
}